{"abi":[{"type":"constructor","inputs":[{"name":"name","type":"string","internalType":"string"},{"name":"symbol","type":"string","internalType":"string"},{"name":"initialOwner","type":"address","internalType":"address"}],"stateMutability":"nonpayable"},{"type":"function","name":"approve","inputs":[{"name":"to","type":"address","internalType":"address"},{"name":"tokenId","type":"uint256","internalType":"uint256"}],"outputs":[],"stateMutability":"nonpayable"},{"type":"function","name":"balanceOf","inputs":[{"name":"owner","type":"address","internalType":"address"}],"outputs":[{"name":"","type":"uint256","internalType":"uint256"}],"stateMutability":"view"},{"type":"function","name":"getApproved","inputs":[{"name":"tokenId","type":"uint256","internalType":"uint256"}],"outputs":[{"name":"","type":"address","internalType":"address"}],"stateMutability":"view"},{"type":"function","name":"isApprovedForAll","inputs":[{"name":"owner","type":"address","internalType":"address"},{"name":"operator","type":"address","internalType":"address"}],"outputs":[{"name":"","type":"bool","internalType":"bool"}],"stateMutability":"view"},{"type":"function","name":"mintGame","inputs":[{"name":"gameId","type":"uint256","internalType":"uint256"}],"outputs":[],"stateMutability":"nonpayable"},{"type":"function","name":"name","inputs":[],"outputs":[{"name":"","type":"string","internalType":"string"}],"stateMutability":"view"},{"type":"function","name":"owner","inputs":[],"outputs":[{"name":"","type":"address","internalType":"address"}],"stateMutability":"view"},{"type":"function","name":"ownerOf","inputs":[{"name":"tokenId","type":"uint256","internalType":"uint256"}],"outputs":[{"name":"","type":"address","internalType":"address"}],"stateMutability":"view"},{"type":"function","name":"renounceOwnership","inputs":[],"outputs":[],"stateMutability":"nonpayable"},{"type":"function","name":"safeTransferFrom","inputs":[{"name":"from","type":"address","internalType":"address"},{"name":"to","type":"address","internalType":"address"},{"name":"tokenId","type":"uint256","internalType":"uint256"}],"outputs":[],"stateMutability":"nonpayable"},{"type":"function","name":"safeTransferFrom","inputs":[{"name":"from","type":"address","internalType":"address"},{"name":"to","type":"address","internalType":"address"},{"name":"tokenId","type":"uint256","internalType":"uint256"},{"name":"data","type":"bytes","internalType":"bytes"}],"outputs":[],"stateMutability":"nonpayable"},{"type":"function","name":"setApprovalForAll","inputs":[{"name":"operator","type":"address","internalType":"address"},{"name":"approved","type":"bool","internalType":"bool"}],"outputs":[],"stateMutability":"nonpayable"},{"type":"function","name":"setBaseURI","inputs":[{"name":"newBaseURI","type":"string","internalType":"string"}],"outputs":[],"stateMutability":"nonpayable"},{"type":"function","name":"supportsInterface","inputs":[{"name":"interfaceId","type":"bytes4","internalType":"bytes4"}],"outputs":[{"name":"","type":"bool","internalType":"bool"}],"stateMutability":"view"},{"type":"function","name":"symbol","inputs":[],"outputs":[{"name":"","type":"string","internalType":"string"}],"stateMutability":"view"},{"type":"function","name":"tokenIdToGameId","inputs":[{"name":"","type":"uint256","internalType":"uint256"}],"outputs":[{"name":"","type":"uint256","internalType":"uint256"}],"stateMutability":"view"},{"type":"function","name":"tokenURI","inputs":[{"name":"tokenId","type":"uint256","internalType":"uint256"}],"outputs":[{"name":"","type":"string","internalType":"string"}],"stateMutability":"view"},{"type":"function","name":"transferFrom","inputs":[{"name":"from","type":"address","internalType":"address"},{"name":"to","type":"address","internalType":"address"},{"name":"tokenId","type":"uint256","internalType":"uint256"}],"outputs":[],"stateMutability":"nonpayable"},{"type":"function","name":"transferOwnership","inputs":[{"name":"newOwner","type":"address","internalType":"address"}],"outputs":[],"stateMutability":"nonpayable"},{"type":"event","name":"Approval","inputs":[{"name":"owner","type":"address","indexed":true,"internalType":"address"},{"name":"approved","type":"address","indexed":true,"internalType":"address"},{"name":"tokenId","type":"uint256","indexed":true,"internalType":"uint256"}],"anonymous":false},{"type":"event","name":"ApprovalForAll","inputs":[{"name":"owner","type":"address","indexed":true,"internalType":"address"},{"name":"operator","type":"address","indexed":true,"internalType":"address"},{"name":"approved","type":"bool","indexed":false,"internalType":"bool"}],"anonymous":false},{"type":"event","name":"OwnershipTransferred","inputs":[{"name":"previousOwner","type":"address","indexed":true,"internalType":"address"},{"name":"newOwner","type":"address","indexed":true,"internalType":"address"}],"anonymous":false},{"type":"event","name":"Transfer","inputs":[{"name":"from","type":"address","indexed":true,"internalType":"address"},{"name":"to","type":"address","indexed":true,"internalType":"address"},{"name":"tokenId","type":"uint256","indexed":true,"internalType":"uint256"}],"anonymous":false},{"type":"error","name":"ERC721IncorrectOwner","inputs":[{"name":"sender","type":"address","internalType":"address"},{"name":"tokenId","type":"uint256","internalType":"uint256"},{"name":"owner","type":"address","internalType":"address"}]},{"type":"error","name":"ERC721InsufficientApproval","inputs":[{"name":"operator","type":"address","internalType":"address"},{"name":"tokenId","type":"uint256","internalType":"uint256"}]},{"type":"error","name":"ERC721InvalidApprover","inputs":[{"name":"approver","type":"address","internalType":"address"}]},{"type":"error","name":"ERC721InvalidOperator","inputs":[{"name":"operator","type":"address","internalType":"address"}]},{"type":"error","name":"ERC721InvalidOwner","inputs":[{"name":"owner","type":"address","internalType":"address"}]},{"type":"error","name":"ERC721InvalidReceiver","inputs":[{"name":"receiver","type":"address","internalType":"address"}]},{"type":"error","name":"ERC721InvalidSender","inputs":[{"name":"sender","type":"address","internalType":"address"}]},{"type":"error","name":"ERC721NonexistentToken","inputs":[{"name":"tokenId","type":"uint256","internalType":"uint256"}]},{"type":"error","name":"OwnableInvalidOwner","inputs":[{"name":"owner","type":"address","internalType":"address"}]},{"type":"error","name":"OwnableUnauthorizedAccount","inputs":[{"name":"account","type":"address","internalType":"address"}]}],"bytecode":{"object":"0x608060405234801562000010575f80fd5b50604051620016a4380380620016a48339810160408190526200003391620001a7565b8083835f620000438382620002ba565b506001620000528282620002ba565b5050506001600160a01b0381166200008357604051631e4fbdf760e01b81525f600482015260240160405180910390fd5b6200008e8162000098565b5050505062000382565b600680546001600160a01b038381166001600160a01b0319831681179093556040519116919082907f8be0079c531659141344cd1fd0a4f28419497f9722a3daafe3b4186f6b6457e0905f90a35050565b634e487b7160e01b5f52604160045260245ffd5b5f82601f8301126200010d575f80fd5b81516001600160401b03808211156200012a576200012a620000e9565b604051601f8301601f19908116603f01168101908282118183101715620001555762000155620000e9565b8160405283815260209250868385880101111562000171575f80fd5b5f91505b8382101562000194578582018301518183018401529082019062000175565b5f93810190920192909252949350505050565b5f805f60608486031215620001ba575f80fd5b83516001600160401b0380821115620001d1575f80fd5b620001df87838801620000fd565b94506020860151915080821115620001f5575f80fd5b506200020486828701620000fd565b604086015190935090506001600160a01b038116811462000223575f80fd5b809150509250925092565b600181811c908216806200024357607f821691505b6020821081036200026257634e487b7160e01b5f52602260045260245ffd5b50919050565b601f821115620002b5575f81815260208120601f850160051c81016020861015620002905750805b601f850160051c820191505b81811015620002b1578281556001016200029c565b5050505b505050565b81516001600160401b03811115620002d657620002d6620000e9565b620002ee81620002e784546200022e565b8462000268565b602080601f83116001811462000324575f84156200030c5750858301515b5f19600386901b1c1916600185901b178555620002b1565b5f85815260208120601f198616915b82811015620003545788860151825594840194600190910190840162000333565b50858210156200037257878501515f19600388901b60f8161c191681555b5050505050600190811b01905550565b61131480620003905f395ff3fe608060405234801561000f575f80fd5b506004361061011c575f3560e01c806370a08231116100a9578063a22cb4651161006e578063a22cb4651461025d578063b88d4fde14610270578063c87b56dd14610283578063e985e9c514610296578063f2fde38b146102a9575f80fd5b806370a08231146101fc578063715018a61461021d5780637e34abf6146102255780638da5cb5b1461024457806395d89b4114610255575f80fd5b806323b872dd116100ef57806323b872dd1461019d57806342842e0e146101b057806355f804b3146101c35780636352211e146101d65780636b49fd68146101e9575f80fd5b806301ffc9a71461012057806306fdde0314610148578063081812fc1461015d578063095ea7b314610188575b5f80fd5b61013361012e366004610e29565b6102bc565b60405190151581526020015b60405180910390f35b61015061030d565b60405161013f9190610e91565b61017061016b366004610ea3565b61039c565b6040516001600160a01b03909116815260200161013f565b61019b610196366004610ed5565b6103c3565b005b61019b6101ab366004610efd565b6103d2565b61019b6101be366004610efd565b610460565b61019b6101d1366004610fbd565b61047f565b6101706101e4366004610ea3565b610493565b61019b6101f7366004610ea3565b61049d565b61020f61020a366004611002565b61056d565b60405190815260200161013f565b61019b6105b2565b61020f610233366004610ea3565b600a6020525f908152604090205481565b6006546001600160a01b0316610170565b6101506105c5565b61019b61026b36600461101b565b6105d4565b61019b61027e366004611054565b6105df565b610150610291366004610ea3565b6105f7565b6101336102a43660046110cb565b61065c565b61019b6102b7366004611002565b610689565b5f6001600160e01b031982166380ac58cd60e01b14806102ec57506001600160e01b03198216635b5e139f60e01b145b8061030757506301ffc9a760e01b6001600160e01b03198316145b92915050565b60605f805461031b906110fc565b80601f0160208091040260200160405190810160405280929190818152602001828054610347906110fc565b80156103925780601f1061036957610100808354040283529160200191610392565b820191905f5260205f20905b81548152906001019060200180831161037557829003601f168201915b5050505050905090565b5f6103a6826106c6565b505f828152600460205260409020546001600160a01b0316610307565b6103ce8282336106fe565b5050565b6001600160a01b03821661040057604051633250574960e11b81525f60048201526024015b60405180910390fd5b5f61040c83833361070b565b9050836001600160a01b0316816001600160a01b03161461045a576040516364283d7b60e01b81526001600160a01b03808616600483015260248201849052821660448201526064016103f7565b50505050565b61047a83838360405180602001604052805f8152506105df565b505050565b6104876107fd565b60096103ce8282611179565b5f610307826106c6565b335f90815260086020908152604080832084845290915290205460ff161561051b5760405162461bcd60e51b815260206004820152602b60248201527f47616d654e46543a20596f75206861766520616c7265616479206d696e74656460448201526a103a3434b99033b0b6b29760a91b60648201526084016103f7565b600780545f918261052b83611235565b90915550335f8181526008602090815260408083208784528252808320805460ff19166001179055848352600a90915290208490559091506103ce908261082a565b5f6001600160a01b038216610597576040516322718ad960e21b81525f60048201526024016103f7565b506001600160a01b03165f9081526003602052604090205490565b6105ba6107fd565b6105c35f610843565b565b60606001805461031b906110fc565b6103ce338383610894565b6105ea8484846103d2565b61045a3385858585610932565b6060610602826106c6565b505f61060c610a5a565b90505f81511161062a5760405180602001604052805f815250610655565b8061063484610a69565b604051602001610645929190611259565b6040516020818303038152906040525b9392505050565b6001600160a01b039182165f90815260056020908152604080832093909416825291909152205460ff1690565b6106916107fd565b6001600160a01b0381166106ba57604051631e4fbdf760e01b81525f60048201526024016103f7565b6106c381610843565b50565b5f818152600260205260408120546001600160a01b03168061030757604051637e27328960e01b8152600481018490526024016103f7565b61047a8383836001610af9565b5f828152600260205260408120546001600160a01b039081169083161561073757610737818486610bfd565b6001600160a01b03811615610771576107525f855f80610af9565b6001600160a01b0381165f90815260036020526040902080545f190190555b6001600160a01b0385161561079f576001600160a01b0385165f908152600360205260409020805460010190555b5f8481526002602052604080822080546001600160a01b0319166001600160a01b0389811691821790925591518793918516917fddf252ad1be2c89b69c2b068fc378daa952ba7f163c4a11628f55a4df523b3ef91a4949350505050565b6006546001600160a01b031633146105c35760405163118cdaa760e01b81523360048201526024016103f7565b6103ce828260405180602001604052805f815250610c61565b600680546001600160a01b038381166001600160a01b0319831681179093556040519116919082907f8be0079c531659141344cd1fd0a4f28419497f9722a3daafe3b4186f6b6457e0905f90a35050565b6001600160a01b0382166108c657604051630b61174360e31b81526001600160a01b03831660048201526024016103f7565b6001600160a01b038381165f81815260056020908152604080832094871680845294825291829020805460ff191686151590811790915591519182527f17307eab39ab6107e8899845ad3d59bd9653f200f220920489ca2b5937696c31910160405180910390a3505050565b6001600160a01b0383163b15610a5357604051630a85bd0160e11b81526001600160a01b0384169063150b7a0290610974908890889087908790600401611287565b6020604051808303815f875af19250505080156109ae575060408051601f3d908101601f191682019092526109ab918101906112c3565b60015b610a15573d8080156109db576040519150601f19603f3d011682016040523d82523d5f602084013e6109e0565b606091505b5080515f03610a0d57604051633250574960e11b81526001600160a01b03851660048201526024016103f7565b805160208201fd5b6001600160e01b03198116630a85bd0160e11b14610a5157604051633250574960e11b81526001600160a01b03851660048201526024016103f7565b505b5050505050565b60606009805461031b906110fc565b60605f610a7583610c78565b60010190505f8167ffffffffffffffff811115610a9457610a94610f36565b6040519080825280601f01601f191660200182016040528015610abe576020820181803683370190505b5090508181016020015b5f19016f181899199a1a9b1b9c1cb0b131b232b360811b600a86061a8153600a8504945084610ac857509392505050565b8080610b0d57506001600160a01b03821615155b15610bce575f610b1c846106c6565b90506001600160a01b03831615801590610b485750826001600160a01b0316816001600160a01b031614155b8015610b5b5750610b59818461065c565b155b15610b845760405163a9fbf51f60e01b81526001600160a01b03841660048201526024016103f7565b8115610bcc5783856001600160a01b0316826001600160a01b03167f8c5be1e5ebec7d5bd14f71427d1e84f3dd0314c0f7b2291e5b200ac8c7c3b92560405160405180910390a45b505b50505f90815260046020526040902080546001600160a01b0319166001600160a01b0392909216919091179055565b610c08838383610d4f565b61047a576001600160a01b038316610c3657604051637e27328960e01b8152600481018290526024016103f7565b60405163177e802f60e01b81526001600160a01b0383166004820152602481018290526044016103f7565b610c6b8383610db3565b61047a335f858585610932565b5f8072184f03e93ff9f4daa797ed6e38ed64bf6a1f0160401b8310610cb65772184f03e93ff9f4daa797ed6e38ed64bf6a1f0160401b830492506040015b6d04ee2d6d415b85acef81000000008310610ce2576d04ee2d6d415b85acef8100000000830492506020015b662386f26fc100008310610d0057662386f26fc10000830492506010015b6305f5e1008310610d18576305f5e100830492506008015b6127108310610d2c57612710830492506004015b60648310610d3e576064830492506002015b600a83106103075760010192915050565b5f6001600160a01b03831615801590610dab5750826001600160a01b0316846001600160a01b03161480610d885750610d88848461065c565b80610dab57505f828152600460205260409020546001600160a01b038481169116145b949350505050565b6001600160a01b038216610ddc57604051633250574960e11b81525f60048201526024016103f7565b5f610de883835f61070b565b90506001600160a01b0381161561047a576040516339e3563760e11b81525f60048201526024016103f7565b6001600160e01b0319811681146106c3575f80fd5b5f60208284031215610e39575f80fd5b813561065581610e14565b5f5b83811015610e5e578181015183820152602001610e46565b50505f910152565b5f8151808452610e7d816020860160208601610e44565b601f01601f19169290920160200192915050565b602081525f6106556020830184610e66565b5f60208284031215610eb3575f80fd5b5035919050565b80356001600160a01b0381168114610ed0575f80fd5b919050565b5f8060408385031215610ee6575f80fd5b610eef83610eba565b946020939093013593505050565b5f805f60608486031215610f0f575f80fd5b610f1884610eba565b9250610f2660208501610eba565b9150604084013590509250925092565b634e487b7160e01b5f52604160045260245ffd5b5f67ffffffffffffffff80841115610f6457610f64610f36565b604051601f8501601f19908116603f01168101908282118183101715610f8c57610f8c610f36565b81604052809350858152868686011115610fa4575f80fd5b858560208301375f602087830101525050509392505050565b5f60208284031215610fcd575f80fd5b813567ffffffffffffffff811115610fe3575f80fd5b8201601f81018413610ff3575f80fd5b610dab84823560208401610f4a565b5f60208284031215611012575f80fd5b61065582610eba565b5f806040838503121561102c575f80fd5b61103583610eba565b915060208301358015158114611049575f80fd5b809150509250929050565b5f805f8060808587031215611067575f80fd5b61107085610eba565b935061107e60208601610eba565b925060408501359150606085013567ffffffffffffffff8111156110a0575f80fd5b8501601f810187136110b0575f80fd5b6110bf87823560208401610f4a565b91505092959194509250565b5f80604083850312156110dc575f80fd5b6110e583610eba565b91506110f360208401610eba565b90509250929050565b600181811c9082168061111057607f821691505b60208210810361112e57634e487b7160e01b5f52602260045260245ffd5b50919050565b601f82111561047a575f81815260208120601f850160051c8101602086101561115a5750805b601f850160051c820191505b81811015610a5157828155600101611166565b815167ffffffffffffffff81111561119357611193610f36565b6111a7816111a184546110fc565b84611134565b602080601f8311600181146111da575f84156111c35750858301515b5f19600386901b1c1916600185901b178555610a51565b5f85815260208120601f198616915b82811015611208578886015182559484019460019091019084016111e9565b508582101561122557878501515f19600388901b60f8161c191681555b5050505050600190811b01905550565b5f6001820161125257634e487b7160e01b5f52601160045260245ffd5b5060010190565b5f835161126a818460208801610e44565b83519083019061127e818360208801610e44565b01949350505050565b6001600160a01b03858116825284166020820152604081018390526080606082018190525f906112b990830184610e66565b9695505050505050565b5f602082840312156112d3575f80fd5b815161065581610e1456fea26469706673582212206d7f8c91af84bbefae559cd6120085a8ff611416b331345e734ba0420e237c5b64736f6c63430008140033","linkReferences":{}},"methodIdentifiers":{"approve(address,uint256)":"095ea7b3","balanceOf(address)":"70a08231","getApproved(uint256)":"081812fc","isApprovedForAll(address,address)":"e985e9c5","mintGame(uint256)":"6b49fd68","name()":"06fdde03","owner()":"8da5cb5b","ownerOf(uint256)":"6352211e","renounceOwnership()":"715018a6","safeTransferFrom(address,address,uint256)":"42842e0e","safeTransferFrom(address,address,uint256,bytes)":"b88d4fde","setApprovalForAll(address,bool)":"a22cb465","setBaseURI(string)":"55f804b3","supportsInterface(bytes4)":"01ffc9a7","symbol()":"95d89b41","tokenIdToGameId(uint256)":"7e34abf6","tokenURI(uint256)":"c87b56dd","transferFrom(address,address,uint256)":"23b872dd","transferOwnership(address)":"f2fde38b"},"id":31}